{
  "contractName": "LotteryGame",
  "abi": [
    {
      "inputs": [],
      "payable": true,
      "stateMutability": "payable",
      "type": "constructor"
    },
    {
      "anonymous": false,
      "inputs": [
        {
          "indexed": false,
          "internalType": "uint256",
          "name": "settlementBlockNumber",
          "type": "uint256"
        }
      ],
      "name": "Drawing",
      "type": "event"
    },
    {
      "anonymous": false,
      "inputs": [
        {
          "indexed": true,
          "internalType": "address",
          "name": "winner",
          "type": "address"
        }
      ],
      "name": "Drawn",
      "type": "event"
    },
    {
      "anonymous": false,
      "inputs": [
        {
          "indexed": true,
          "internalType": "address",
          "name": "player",
          "type": "address"
        }
      ],
      "name": "Play",
      "type": "event"
    },
    {
      "constant": true,
      "inputs": [],
      "name": "THRESHOLD",
      "outputs": [
        {
          "internalType": "uint8",
          "name": "",
          "type": "uint8"
        }
      ],
      "payable": false,
      "stateMutability": "view",
      "type": "function"
    },
    {
      "constant": true,
      "inputs": [
        {
          "internalType": "uint256",
          "name": "",
          "type": "uint256"
        }
      ],
      "name": "players",
      "outputs": [
        {
          "internalType": "address payable",
          "name": "",
          "type": "address"
        }
      ],
      "payable": false,
      "stateMutability": "view",
      "type": "function"
    },
    {
      "constant": true,
      "inputs": [],
      "name": "settlementBlockNumber",
      "outputs": [
        {
          "internalType": "uint256",
          "name": "",
          "type": "uint256"
        }
      ],
      "payable": false,
      "stateMutability": "view",
      "type": "function"
    },
    {
      "constant": false,
      "inputs": [],
      "name": "play",
      "outputs": [],
      "payable": true,
      "stateMutability": "payable",
      "type": "function"
    },
    {
      "constant": false,
      "inputs": [],
      "name": "draw",
      "outputs": [],
      "payable": false,
      "stateMutability": "nonpayable",
      "type": "function"
    },
    {
      "constant": false,
      "inputs": [],
      "name": "kill",
      "outputs": [],
      "payable": false,
      "stateMutability": "nonpayable",
      "type": "function"
    }
  ],
  "bytecode": "0x608060405267016345785d8a00006002556003805460ff1916600b179055670de0b6b3a7640000341461007d576040517f08c379a00000000000000000000000000000000000000000000000000000000081526004018080602001828103825260278152602001806107596027913960400191505060405180910390fd5b600080546001600160a01b031916331790556106bb8061009e6000396000f3fe6080604052600436106100555760003560e01c80630eecae211461005a57806341c0e1b514610071578063785ffb371461008657806393e84cd9146100b1578063c8feb1d2146100b9578063f71d96cb146100e0575b600080fd5b34801561006657600080fd5b5061006f610126565b005b34801561007d57600080fd5b5061006f610373565b34801561009257600080fd5b5061009b610436565b6040805160ff9092168252519081900360200190f35b61006f61043f565b3480156100c557600080fd5b506100ce6105ac565b60408051918252519081900360200190f35b3480156100ec57600080fd5b5061010a6004803603602081101561010357600080fd5b50356105b2565b604080516001600160a01b039092168252519081900360200190f35b6000546001600160a01b0316331461016f5760405162461bcd60e51b81526004018080602001828103825260268152602001806106616026913960400191505060405180910390fd5b60035460015460ff909116146101b65760405162461bcd60e51b81526004018080602001828103825260298152602001806106386029913960400191505060405180910390fd5b600454431161020c576040805162461bcd60e51b815260206004820181905260248201527f536574746c656d656e74426c6f636b2069736e27742076616c69642079657421604482015290519081900360640190fd5b600454610100014310610266576040805162461bcd60e51b815260206004820152601f60248201527f536574746c656d656e74426c6f636b206973206f7574206f6620646174652100604482015290519081900360640190fd5b60035460045460408051914060208084019190915242838301528151808403830181526060909301909152815191012060009160ff9081169116816102a757fe5b06905060018160ff16815481106102ba57fe5b60009182526020822001546002546003546040516001600160a01b039093169360001960ff9283160190911690910280156108fc02929091818181858888f1935050505015801561030f573d6000803e3d6000fd5b5060018160ff168154811061032057fe5b60009182526020822001546040516001600160a01b03909116917fd9b9044da3167fe82c0e21394db224885a43b7de20efc6133458294f2c6bc96091a260006004819055610370906001906105d9565b50565b6000546001600160a01b031633146103bc5760405162461bcd60e51b81526004018080602001828103825260248152602001806106146024913960400191505060405180910390fd5b60005b60015460ff821610156104275760018160ff16815481106103dc57fe5b60009182526020822001546002546040516001600160a01b039092169281156108fc029290818181858888f1935050505015801561041e573d6000803e3d6000fd5b506001016103bf565b506000546001600160a01b0316ff5b60035460ff1681565b6002543414610495576040805162461bcd60e51b815260206004820152601760248201527f4f6e6520626574206e6565647320302e31206574686572000000000000000000604482015290519081900360640190fd5b60035460015460ff909116116104f2576040805162461bcd60e51b815260206004820152601a60248201527f57616974696e6720666f72206c6f747465727920726573756c74000000000000604482015290519081900360640190fd5b60018054808201825560009182527fb10e2d527612073b26eecdfd717e6a320cf44b4afac2b0732d9fcbe2b7fa0cf60180546001600160a01b0319163390811790915560405190917f74ff4718bf0d5b38ef942dd8fd82b6a7af50cb06df94b380e3bd953df8e34a3c91a260035460015460ff90911614156105aa57600a4301600481905560408051918252517fe45efc3a43a9768362528ace2c611727dae9028310c54360255d6987d777b5769181900360200190a15b565b60045481565b600181815481106105bf57fe5b6000918252602090912001546001600160a01b0316905081565b5080546000825590600052602060002090810190610370919061061091905b8082111561060c57600081556001016105f8565b5090565b9056fe4f6e6c7920636f6e7472616374206f776e65722063616e2063616c6c206b696c6c2829216e756d626572206f6620706c6179657220646f65736e2774207265616368207468726573686f6c642e4f6e6c7920636f6e7472616374206f776e65722063616e2063616c6c20636f6d6d6974282921a265627a7a72315820aac88502dc51308833b0efbbc798eb0ef5a276fc59de081bc693b226aebec6a964736f6c634300050d003252657175697265203120656874657220746f206465706c6f792074686520636f6e747261637421",
  "source": "pragma solidity ^0.5.11;\r\n\r\ncontract LotteryGame {\r\n    address payable owner; // owner of this contract\r\n    address payable[] public players;\r\n    uint BET = 0.1 ether;\r\n    uint8 public THRESHOLD = 11;\r\n    uint public settlementBlockNumber;\r\n\r\n    event Play(address indexed player);\r\n    event Drawing(uint settlementBlockNumber);\r\n    event Drawn(address indexed winner);\r\n\r\n    constructor() public payable {\r\n        require(msg.value == 1 ether, \"Require 1 ehter to deploy the contract!\");\r\n        owner = msg.sender;\r\n    }\r\n\r\n    // participate the game\r\n    function play() public payable {\r\n        require(msg.value == BET, \"One bet needs 0.1 ether\");\r\n        require(players.length < THRESHOLD, \"Waiting for lottery result\");\r\n\r\n        players.push(msg.sender); // record the players\r\n        emit Play(msg.sender);\r\n\r\n        if (players.length == THRESHOLD) {\r\n            // reach threshold, lock in the block hash in the future\r\n            settlementBlockNumber = block.number + 10;\r\n\r\n            emit Drawing(settlementBlockNumber);\r\n        }\r\n    }\r\n\r\n    // draw a lottery\r\n    function draw() public {\r\n        require(msg.sender == owner, \"Only contract owner can call commit()!\");\r\n        require(players.length == THRESHOLD, \"number of player doesn't reach threshold.\");\r\n        require(block.number > settlementBlockNumber, \"SettlementBlock isn't valid yet!\");\r\n        require(block.number < settlementBlockNumber + 256, \"SettlementBlock is out of date!\");\r\n\r\n        uint8 winner = uint8(uint(keccak256(abi.encodePacked(blockhash(settlementBlockNumber), now)))) % THRESHOLD;\r\n        players[winner].transfer((THRESHOLD-1) * BET); // 1 * BET for handling fee\r\n\r\n        emit Drawn(players[winner]);\r\n\r\n        settlementBlockNumber = 0;\r\n        delete players;\r\n    }\r\n\r\n    function kill() public {\r\n        require(msg.sender == owner, \"Only contract owner can call kill()!\");\r\n\r\n        // return the money\r\n        for (uint8 i = 0; i < players.length; i++) {\r\n            players[i].transfer(1 * BET);\r\n        }\r\n\r\n        selfdestruct(owner);\r\n    }\r\n}",
  "sourcePath": "D:/Myse1f/project/lottery-front/contracts/LotteryGame.sol",
  "compiler": {
    "name": "solc",
    "version": "0.5.13+commit.5b0b510c.Windows.msvc"
  },
  "schemaVersion": "3.0.19",
  "updatedAt": "2019-12-06T06:14:55.253Z",
  "networkType": "ethereum",
  "devdoc": {
    "methods": {}
  },
  "userdoc": {
    "methods": {}
  }
}