{
  "contractName": "LotteryGame",
  "abi": [
    {
      "inputs": [],
      "payable": true,
      "stateMutability": "payable",
      "type": "constructor"
    },
    {
      "anonymous": false,
      "inputs": [
        {
          "indexed": false,
          "internalType": "uint256",
          "name": "settlementBlockNumber",
          "type": "uint256"
        }
      ],
      "name": "Drawing",
      "type": "event"
    },
    {
      "anonymous": false,
      "inputs": [
        {
          "indexed": true,
          "internalType": "address",
          "name": "winner",
          "type": "address"
        }
      ],
      "name": "Drawn",
      "type": "event"
    },
    {
      "anonymous": false,
      "inputs": [
        {
          "indexed": true,
          "internalType": "address",
          "name": "player",
          "type": "address"
        },
        {
          "indexed": false,
          "internalType": "uint256",
          "name": "numOfPlayers",
          "type": "uint256"
        }
      ],
      "name": "Play",
      "type": "event"
    },
    {
      "constant": false,
      "inputs": [],
      "name": "play",
      "outputs": [],
      "payable": true,
      "stateMutability": "payable",
      "type": "function"
    },
    {
      "constant": false,
      "inputs": [],
      "name": "draw",
      "outputs": [],
      "payable": false,
      "stateMutability": "nonpayable",
      "type": "function"
    },
    {
      "constant": false,
      "inputs": [],
      "name": "kill",
      "outputs": [],
      "payable": false,
      "stateMutability": "nonpayable",
      "type": "function"
    },
    {
      "constant": true,
      "inputs": [],
      "name": "getPlayers",
      "outputs": [
        {
          "internalType": "address payable[]",
          "name": "",
          "type": "address[]"
        }
      ],
      "payable": false,
      "stateMutability": "view",
      "type": "function"
    },
    {
      "constant": true,
      "inputs": [],
      "name": "getSettlementBlock",
      "outputs": [
        {
          "internalType": "uint256",
          "name": "",
          "type": "uint256"
        }
      ],
      "payable": false,
      "stateMutability": "view",
      "type": "function"
    },
    {
      "constant": true,
      "inputs": [],
      "name": "getThreshold",
      "outputs": [
        {
          "internalType": "uint8",
          "name": "",
          "type": "uint8"
        }
      ],
      "payable": false,
      "stateMutability": "view",
      "type": "function"
    },
    {
      "constant": true,
      "inputs": [],
      "name": "getLastWinner",
      "outputs": [
        {
          "internalType": "address",
          "name": "",
          "type": "address"
        }
      ],
      "payable": false,
      "stateMutability": "view",
      "type": "function"
    }
  ],
  "bytecode": "0x608060405267016345785d8a00006002556003805460ff1916600b179055670de0b6b3a7640000341461007d576040517f08c379a000000000000000000000000000000000000000000000000000000000815260040180806020018281038252602781526020018061083f6027913960400191505060405180910390fd5b600080546001600160a01b031916331790556107a18061009e6000396000f3fe6080604052600436106100705760003560e01c80638b5b9ccc1161004e5780638b5b9ccc146100c857806393e84cd91461012d578063e75235b814610135578063f88649a11461016057610070565b80630eecae2114610075578063198847551461008c57806341c0e1b5146100b3575b600080fd5b34801561008157600080fd5b5061008a610191565b005b34801561009857600080fd5b506100a1610405565b60408051918252519081900360200190f35b3480156100bf57600080fd5b5061008a61040c565b3480156100d457600080fd5b506100dd6104cf565b60408051602080825283518183015283519192839290830191858101910280838360005b83811015610119578181015183820152602001610101565b505050509050019250505060405180910390f35b61008a610531565b34801561014157600080fd5b5061014a6106aa565b6040805160ff9092168252519081900360200190f35b34801561016c57600080fd5b506101756106b3565b604080516001600160a01b039092168252519081900360200190f35b6000546001600160a01b031633146101da5760405162461bcd60e51b81526004018080602001828103825260268152602001806107476026913960400191505060405180910390fd5b60035460015460ff909116146102215760405162461bcd60e51b815260040180806020018281038252602981526020018061071e6029913960400191505060405180910390fd5b6004544311610277576040805162461bcd60e51b815260206004820181905260248201527f536574746c656d656e74426c6f636b2069736e27742076616c69642079657421604482015290519081900360640190fd5b6004546101000143106102d1576040805162461bcd60e51b815260206004820152601f60248201527f536574746c656d656e74426c6f636b206973206f7574206f6620646174652100604482015290519081900360640190fd5b60035460045460408051914060208084019190915242838301528151808403830181526060909301909152815191012060009160ff90811691168161031257fe5b06905060018160ff168154811061032557fe5b600091825260209091200154600580546001600160a01b0319166001600160a01b039092169190911790556001805460ff831690811061036157fe5b60009182526020822001546002546003546040516001600160a01b039093169360001960ff9283160190911690910280156108fc02929091818181858888f193505050501580156103b6573d6000803e3d6000fd5b506005546040516001600160a01b03909116907fd9b9044da3167fe82c0e21394db224885a43b7de20efc6133458294f2c6bc96090600090a260006004819055610402906001906106c2565b50565b6004545b90565b6000546001600160a01b031633146104555760405162461bcd60e51b81526004018080602001828103825260248152602001806106fa6024913960400191505060405180910390fd5b60005b60015460ff821610156104c05760018160ff168154811061047557fe5b60009182526020822001546002546040516001600160a01b039092169281156108fc029290818181858888f193505050501580156104b7573d6000803e3d6000fd5b50600101610458565b506000546001600160a01b0316ff5b6060600180548060200260200160405190810160405280929190818152602001828054801561052757602002820191906000526020600020905b81546001600160a01b03168152600190910190602001808311610509575b5050505050905090565b6002543414610587576040805162461bcd60e51b815260206004820152601760248201527f4f6e6520626574206e6565647320302e31206574686572000000000000000000604482015290519081900360640190fd5b60035460015460ff909116116105e4576040805162461bcd60e51b815260206004820152601a60248201527f57616974696e6720666f72206c6f747465727920726573756c74000000000000604482015290519081900360640190fd5b60018054808201825560008290527fb10e2d527612073b26eecdfd717e6a320cf44b4afac2b0732d9fcbe2b7fa0cf60180546001600160a01b03191633908117909155905460408051918252517f0c635b74dfccae79c39119dc6d80498e3cdcaae2ab17216ed32fe2ce36cfe09a9181900360200190a260035460015460ff90911614156106a857600a4301600481905560408051918252517fe45efc3a43a9768362528ace2c611727dae9028310c54360255d6987d777b5769181900360200190a15b565b60035460ff1690565b6005546001600160a01b031690565b5080546000825590600052602060002090810190610402919061040991905b808211156106f557600081556001016106e1565b509056fe4f6e6c7920636f6e7472616374206f776e65722063616e2063616c6c206b696c6c2829216e756d626572206f6620706c6179657220646f65736e2774207265616368207468726573686f6c642e4f6e6c7920636f6e7472616374206f776e65722063616e2063616c6c20636f6d6d6974282921a265627a7a723158208019ab4f289c4573ac45b04e5186585ee852367531c470466609cd966484f25364736f6c634300050d003252657175697265203120656874657220746f206465706c6f792074686520636f6e747261637421",
  "source": "pragma solidity ^0.5.11;\r\n\r\ncontract LotteryGame {\r\n    address payable owner; // owner of this contract\r\n    address payable[] players;\r\n    uint BET = 0.1 ether;\r\n    uint8 THRESHOLD = 11;\r\n    uint settlementBlockNumber;\r\n    address lastWinner;\r\n\r\n    event Play(address indexed player, uint256 numOfPlayers);\r\n    event Drawing(uint settlementBlockNumber);\r\n    event Drawn(address indexed winner);\r\n\r\n    constructor() public payable {\r\n        require(msg.value == 1 ether, \"Require 1 ehter to deploy the contract!\");\r\n        owner = msg.sender;\r\n    }\r\n\r\n    // participate the game\r\n    function play() public payable {\r\n        require(msg.value == BET, \"One bet needs 0.1 ether\");\r\n        require(players.length < THRESHOLD, \"Waiting for lottery result\");\r\n\r\n        players.push(msg.sender); // record the players\r\n        emit Play(msg.sender, players.length);\r\n\r\n        if (players.length == THRESHOLD) {\r\n            // reach threshold, lock in the block hash in the future\r\n            settlementBlockNumber = block.number + 10;\r\n\r\n            emit Drawing(settlementBlockNumber);\r\n        }\r\n    }\r\n\r\n    // draw a lottery\r\n    function draw() public {\r\n        require(msg.sender == owner, \"Only contract owner can call commit()!\");\r\n        require(players.length == THRESHOLD, \"number of player doesn't reach threshold.\");\r\n        require(block.number > settlementBlockNumber, \"SettlementBlock isn't valid yet!\");\r\n        require(block.number < settlementBlockNumber + 256, \"SettlementBlock is out of date!\");\r\n\r\n        uint8 winner = uint8(uint(keccak256(abi.encodePacked(blockhash(settlementBlockNumber), now)))) % THRESHOLD;\r\n        lastWinner = players[winner];\r\n        players[winner].transfer((THRESHOLD-1) * BET); // 1 * BET for handling fee\r\n\r\n        emit Drawn(lastWinner);\r\n\r\n        settlementBlockNumber = 0;\r\n        delete players;\r\n    }\r\n\r\n    function kill() public {\r\n        require(msg.sender == owner, \"Only contract owner can call kill()!\");\r\n\r\n        // return the money\r\n        for (uint8 i = 0; i < players.length; i++) {\r\n            players[i].transfer(1 * BET);\r\n        }\r\n\r\n        selfdestruct(owner);\r\n    }\r\n\r\n    function getPlayers() public view returns (address payable[] memory) {\r\n        return players;\r\n    }\r\n\r\n    function getSettlementBlock() public view returns (uint) {\r\n        return settlementBlockNumber;\r\n    }\r\n\r\n    function getThreshold() public view returns (uint8) {\r\n        return THRESHOLD;\r\n    }\r\n\r\n    function getLastWinner() public view returns (address) {\r\n        return lastWinner;\r\n    }\r\n}",
  "sourcePath": "D:/Myse1f/project/lottery-front/contracts/LotteryGame.sol",
  "compiler": {
    "name": "solc",
    "version": "0.5.13+commit.5b0b510c.Windows.msvc"
  },
  "schemaVersion": "3.0.19",
  "updatedAt": "2019-12-10T03:42:32.855Z",
  "networkType": "ethereum",
  "devdoc": {
    "methods": {}
  },
  "userdoc": {
    "methods": {}
  }
}